{
  "_format": "hh-sol-artifact-1",
  "contractName": "LeaseContract",
  "sourceName": "contracts/LeaseContract.sol",
  "abi": [
    {
      "anonymous": false,
      "inputs": [
        {
          "indexed": true,
          "internalType": "address",
          "name": "leasee",
          "type": "address"
        },
        {
          "indexed": false,
          "internalType": "string",
          "name": "cid",
          "type": "string"
        }
      ],
      "name": "AccessTransferred",
      "type": "event"
    },
    {
      "anonymous": false,
      "inputs": [
        {
          "indexed": false,
          "internalType": "address",
          "name": "leaser",
          "type": "address"
        },
        {
          "indexed": false,
          "internalType": "string",
          "name": "cid",
          "type": "string"
        },
        {
          "indexed": false,
          "internalType": "uint256",
          "name": "duration",
          "type": "uint256"
        },
        {
          "indexed": false,
          "internalType": "uint256",
          "name": "payment",
          "type": "uint256"
        }
      ],
      "name": "DebugLeasingStarted",
      "type": "event"
    },
    {
      "anonymous": false,
      "inputs": [
        {
          "indexed": true,
          "internalType": "address",
          "name": "leaser",
          "type": "address"
        },
        {
          "indexed": false,
          "internalType": "string",
          "name": "cid",
          "type": "string"
        },
        {
          "indexed": false,
          "internalType": "uint256",
          "name": "duration",
          "type": "uint256"
        },
        {
          "indexed": false,
          "internalType": "uint256",
          "name": "payment",
          "type": "uint256"
        },
        {
          "indexed": false,
          "internalType": "uint256",
          "name": "startTime",
          "type": "uint256"
        }
      ],
      "name": "LeaseCreated",
      "type": "event"
    },
    {
      "anonymous": false,
      "inputs": [
        {
          "indexed": true,
          "internalType": "address",
          "name": "leaser",
          "type": "address"
        },
        {
          "indexed": false,
          "internalType": "string",
          "name": "cid",
          "type": "string"
        },
        {
          "indexed": false,
          "internalType": "uint256",
          "name": "duration",
          "type": "uint256"
        },
        {
          "indexed": false,
          "internalType": "uint256",
          "name": "payment",
          "type": "uint256"
        }
      ],
      "name": "LeaseUploaded",
      "type": "event"
    },
    {
      "anonymous": false,
      "inputs": [
        {
          "indexed": true,
          "internalType": "address",
          "name": "leaser",
          "type": "address"
        },
        {
          "indexed": true,
          "internalType": "address",
          "name": "leasee",
          "type": "address"
        },
        {
          "indexed": false,
          "internalType": "uint256",
          "name": "amount",
          "type": "uint256"
        }
      ],
      "name": "PaymentProcessed",
      "type": "event"
    },
    {
      "anonymous": false,
      "inputs": [
        {
          "indexed": true,
          "internalType": "address",
          "name": "leaser",
          "type": "address"
        },
        {
          "indexed": false,
          "internalType": "uint256",
          "name": "amount",
          "type": "uint256"
        }
      ],
      "name": "RefundProcessed",
      "type": "event"
    },
    {
      "inputs": [
        {
          "internalType": "string",
          "name": "",
          "type": "string"
        }
      ],
      "name": "cidExists",
      "outputs": [
        {
          "internalType": "bool",
          "name": "",
          "type": "bool"
        }
      ],
      "stateMutability": "view",
      "type": "function"
    },
    {
      "inputs": [
        {
          "internalType": "string",
          "name": "",
          "type": "string"
        }
      ],
      "name": "cidToLeaser",
      "outputs": [
        {
          "internalType": "address",
          "name": "",
          "type": "address"
        }
      ],
      "stateMutability": "view",
      "type": "function"
    },
    {
      "inputs": [
        {
          "internalType": "uint256",
          "name": "",
          "type": "uint256"
        }
      ],
      "name": "cids",
      "outputs": [
        {
          "internalType": "string",
          "name": "",
          "type": "string"
        }
      ],
      "stateMutability": "view",
      "type": "function"
    },
    {
      "inputs": [],
      "name": "getAllUploads",
      "outputs": [
        {
          "internalType": "string[]",
          "name": "allCids",
          "type": "string[]"
        },
        {
          "internalType": "address[]",
          "name": "allLeasers",
          "type": "address[]"
        }
      ],
      "stateMutability": "view",
      "type": "function"
    },
    {
      "inputs": [
        {
          "internalType": "address",
          "name": "",
          "type": "address"
        }
      ],
      "name": "leaseExists",
      "outputs": [
        {
          "internalType": "bool",
          "name": "",
          "type": "bool"
        }
      ],
      "stateMutability": "view",
      "type": "function"
    },
    {
      "inputs": [
        {
          "internalType": "address",
          "name": "",
          "type": "address"
        }
      ],
      "name": "leases",
      "outputs": [
        {
          "internalType": "address",
          "name": "leaser",
          "type": "address"
        },
        {
          "internalType": "string",
          "name": "cid",
          "type": "string"
        },
        {
          "internalType": "uint256",
          "name": "duration",
          "type": "uint256"
        },
        {
          "internalType": "uint256",
          "name": "payment",
          "type": "uint256"
        },
        {
          "internalType": "uint256",
          "name": "startTime",
          "type": "uint256"
        }
      ],
      "stateMutability": "view",
      "type": "function"
    },
    {
      "inputs": [
        {
          "internalType": "string",
          "name": "_cid",
          "type": "string"
        },
        {
          "internalType": "uint256",
          "name": "_duration",
          "type": "uint256"
        },
        {
          "internalType": "uint256",
          "name": "_payment",
          "type": "uint256"
        }
      ],
      "name": "leasing",
      "outputs": [],
      "stateMutability": "nonpayable",
      "type": "function"
    },
    {
      "inputs": [
        {
          "internalType": "address",
          "name": "_leaser",
          "type": "address"
        },
        {
          "internalType": "address",
          "name": "_leasee",
          "type": "address"
        },
        {
          "internalType": "uint256",
          "name": "_amount",
          "type": "uint256"
        }
      ],
      "name": "payment",
      "outputs": [],
      "stateMutability": "nonpayable",
      "type": "function"
    },
    {
      "inputs": [],
      "name": "refund",
      "outputs": [],
      "stateMutability": "nonpayable",
      "type": "function"
    },
    {
      "inputs": [
        {
          "internalType": "string",
          "name": "_cid",
          "type": "string"
        },
        {
          "internalType": "uint256",
          "name": "_duration",
          "type": "uint256"
        },
        {
          "internalType": "uint256",
          "name": "_payment",
          "type": "uint256"
        }
      ],
      "name": "uploadLease",
      "outputs": [],
      "stateMutability": "nonpayable",
      "type": "function"
    }
  ],
  "bytecode": "0x608060405234801561001057600080fd5b50612410806100206000396000f3fe608060405234801561001057600080fd5b506004361061009e5760003560e01c8063d74d1f4311610066578063d74d1f4314610159578063e4d57bc61461018d578063ec77f593146101ac578063fd74d4cc146101c8578063fe57acee146101e45761009e565b8063590e1ae3146100a3578063704fe710146100ad57806399b23dc3146100dd578063a77015d1146100f9578063bfc289b814610129575b600080fd5b6100ab610214565b005b6100c760048036038101906100c291906114dc565b6105d3565b6040516100d49190611599565b60405180910390f35b6100f760048036038101906100f29190611619565b61067f565b005b610113600480360381019061010e91906117a1565b61093c565b6040516101209190611805565b60405180910390f35b610143600480360381019061013e9190611820565b610972565b6040516101509190611805565b60405180910390f35b610173600480360381019061016e9190611820565b610992565b60405161018495949392919061186b565b60405180910390f35b610195610a70565b6040516101a3929190611a8f565b60405180910390f35b6101c660048036038101906101c19190611ac6565b610caa565b005b6101e260048036038101906101dd9190611ac6565b610e36565b005b6101fe60048036038101906101f991906117a1565b611160565b60405161020b9190611b35565b60405180910390f35b33600160008273ffffffffffffffffffffffffffffffffffffffff1673ffffffffffffffffffffffffffffffffffffffff16815260200190815260200160002060009054906101000a900460ff166102a1576040517f08c379a000000000000000000000000000000000000000000000000000000000815260040161029890611b9c565b60405180910390fd5b60008060003373ffffffffffffffffffffffffffffffffffffffff1673ffffffffffffffffffffffffffffffffffffffff1681526020019081526020016000206040518060a00160405290816000820160009054906101000a900473ffffffffffffffffffffffffffffffffffffffff1673ffffffffffffffffffffffffffffffffffffffff1673ffffffffffffffffffffffffffffffffffffffff16815260200160018201805461035290611beb565b80601f016020809104026020016040519081016040528092919081815260200182805461037e90611beb565b80156103cb5780601f106103a0576101008083540402835291602001916103cb565b820191906000526020600020905b8154815290600101906020018083116103ae57829003601f168201915b5050505050815260200160028201548152602001600382015481526020016004820154815250509050806040015181608001516104089190611c4b565b42101561044a576040517f08c379a000000000000000000000000000000000000000000000000000000000815260040161044190611ccb565b60405180910390fd5b3373ffffffffffffffffffffffffffffffffffffffff166108fc82606001519081150290604051600060405180830381858888f19350505050158015610494573d6000803e3d6000fd5b503373ffffffffffffffffffffffffffffffffffffffff167f3367befd2b2f39615cd79917c2153263c4af1d3945ec003e5d5bfc13a8d8583382606001516040516104df9190611ceb565b60405180910390a26000803373ffffffffffffffffffffffffffffffffffffffff1673ffffffffffffffffffffffffffffffffffffffff168152602001908152602001600020600080820160006101000a81549073ffffffffffffffffffffffffffffffffffffffff021916905560018201600061055d9190611435565b60028201600090556003820160009055600482016000905550506000600160003373ffffffffffffffffffffffffffffffffffffffff1673ffffffffffffffffffffffffffffffffffffffff16815260200190815260200160002060006101000a81548160ff0219169083151502179055505050565b600481815481106105e357600080fd5b9060005260206000200160009150905080546105fe90611beb565b80601f016020809104026020016040519081016040528092919081815260200182805461062a90611beb565b80156106775780601f1061064c57610100808354040283529160200191610677565b820191906000526020600020905b81548152906001019060200180831161065a57829003601f168201915b505050505081565b8173ffffffffffffffffffffffffffffffffffffffff163373ffffffffffffffffffffffffffffffffffffffff16146106ed576040517f08c379a00000000000000000000000000000000000000000000000000000000081526004016106e490611d52565b60405180910390fd5b8273ffffffffffffffffffffffffffffffffffffffff166000808573ffffffffffffffffffffffffffffffffffffffff1673ffffffffffffffffffffffffffffffffffffffff16815260200190815260200160002060000160009054906101000a900473ffffffffffffffffffffffffffffffffffffffff1673ffffffffffffffffffffffffffffffffffffffff16146107bc576040517f08c379a00000000000000000000000000000000000000000000000000000000081526004016107b390611dbe565b60405180910390fd5b3373ffffffffffffffffffffffffffffffffffffffff166000808573ffffffffffffffffffffffffffffffffffffffff1673ffffffffffffffffffffffffffffffffffffffff16815260200190815260200160002060000160009054906101000a900473ffffffffffffffffffffffffffffffffffffffff1673ffffffffffffffffffffffffffffffffffffffff161461088b576040517f08c379a000000000000000000000000000000000000000000000000000000000815260040161088290611e2a565b60405180910390fd5b8273ffffffffffffffffffffffffffffffffffffffff166108fc829081150290604051600060405180830381858888f193505050501580156108d1573d6000803e3d6000fd5b508173ffffffffffffffffffffffffffffffffffffffff168373ffffffffffffffffffffffffffffffffffffffff167f0538ab32a957d2b55d0ec70a4029e73fdf19f500832839b1d7bafcfbca2a56308360405161092f9190611ceb565b60405180910390a3505050565b6003818051602081018201805184825260208301602085012081835280955050505050506000915054906101000a900460ff1681565b60016020528060005260406000206000915054906101000a900460ff1681565b60006020528060005260406000206000915090508060000160009054906101000a900473ffffffffffffffffffffffffffffffffffffffff16908060010180546109db90611beb565b80601f0160208091040260200160405190810160405280929190818152602001828054610a0790611beb565b8015610a545780601f10610a2957610100808354040283529160200191610a54565b820191906000526020600020905b815481529060010190602001808311610a3757829003601f168201915b5050505050908060020154908060030154908060040154905085565b606080600060048054905090508067ffffffffffffffff811115610a9757610a96611676565b5b604051908082528060200260200182016040528015610aca57816020015b6060815260200190600190039081610ab55790505b5092508067ffffffffffffffff811115610ae757610ae6611676565b5b604051908082528060200260200182016040528015610b155781602001602082028036833780820191505090505b50915060005b81811015610ca45760048181548110610b3757610b36611e4a565b5b906000526020600020018054610b4c90611beb565b80601f0160208091040260200160405190810160405280929190818152602001828054610b7890611beb565b8015610bc55780601f10610b9a57610100808354040283529160200191610bc5565b820191906000526020600020905b815481529060010190602001808311610ba857829003601f168201915b5050505050848281518110610bdd57610bdc611e4a565b5b6020026020010181905250600260048281548110610bfe57610bfd611e4a565b5b90600052602060002001604051610c159190611f1c565b908152602001604051809103902060009054906101000a900473ffffffffffffffffffffffffffffffffffffffff16838281518110610c5757610c56611e4a565b5b602002602001019073ffffffffffffffffffffffffffffffffffffffff16908173ffffffffffffffffffffffffffffffffffffffff16815250508080610c9c90611f33565b915050610b1b565b50509091565b600383604051610cba9190611fac565b908152602001604051809103902060009054906101000a900460ff1615610d16576040517f08c379a0000000000000000000000000000000000000000000000000000000008152600401610d0d9061200f565b60405180910390fd5b6001600384604051610d289190611fac565b908152602001604051809103902060006101000a81548160ff02191690831515021790555033600284604051610d5e9190611fac565b908152602001604051809103902060006101000a81548173ffffffffffffffffffffffffffffffffffffffff021916908373ffffffffffffffffffffffffffffffffffffffff160217905550600483908060018154018082558091505060019003906000526020600020016000909190919091509081610dde91906121c6565b503373ffffffffffffffffffffffffffffffffffffffff167f67673c51b25f2131b208095367651687426e5c88a0b7430fbcfd6c04af9a5121848484604051610e2993929190612298565b60405180910390a2505050565b600383604051610e469190611fac565b908152602001604051809103902060009054906101000a900460ff1615610ea2576040517f08c379a0000000000000000000000000000000000000000000000000000000008152600401610e999061200f565b60405180910390fd5b7fb732eb5251e5cbbdea0ef423b0f1dcca6c0de948255e39f211e68029c8cde24433848484604051610ed794939291906122d6565b60405180910390a160006040518060a001604052803373ffffffffffffffffffffffffffffffffffffffff168152602001858152602001848152602001838152602001428152509050806000803373ffffffffffffffffffffffffffffffffffffffff1673ffffffffffffffffffffffffffffffffffffffff16815260200190815260200160002060008201518160000160006101000a81548173ffffffffffffffffffffffffffffffffffffffff021916908373ffffffffffffffffffffffffffffffffffffffff1602179055506020820151816001019081610fbb91906121c6565b5060408201518160020155606082015181600301556080820151816004015590505060018060003373ffffffffffffffffffffffffffffffffffffffff1673ffffffffffffffffffffffffffffffffffffffff16815260200190815260200160002060006101000a81548160ff021916908315150217905550336002856040516110459190611fac565b908152602001604051809103902060006101000a81548173ffffffffffffffffffffffffffffffffffffffff021916908373ffffffffffffffffffffffffffffffffffffffff16021790555060016003856040516110a39190611fac565b908152602001604051809103902060006101000a81548160ff0219169083151502179055506004849080600181540180825580915050600190039060005260206000200160009091909190915090816110fc91906121c6565b503373ffffffffffffffffffffffffffffffffffffffff167f728120f36e7f43ad34af68eb16d524394d0d0eaa58a1baed0eaf3cfa50697c54858585426040516111499493929190612322565b60405180910390a261115a336111a9565b50505050565b6002818051602081018201805184825260208301602085012081835280955050505050506000915054906101000a900473ffffffffffffffffffffffffffffffffffffffff1681565b33600160008273ffffffffffffffffffffffffffffffffffffffff1673ffffffffffffffffffffffffffffffffffffffff16815260200190815260200160002060009054906101000a900460ff16611236576040517f08c379a000000000000000000000000000000000000000000000000000000000815260040161122d90611b9c565b60405180910390fd5b60008060003373ffffffffffffffffffffffffffffffffffffffff1673ffffffffffffffffffffffffffffffffffffffff1681526020019081526020016000206040518060a00160405290816000820160009054906101000a900473ffffffffffffffffffffffffffffffffffffffff1673ffffffffffffffffffffffffffffffffffffffff1673ffffffffffffffffffffffffffffffffffffffff1681526020016001820180546112e790611beb565b80601f016020809104026020016040519081016040528092919081815260200182805461131390611beb565b80156113605780601f1061133557610100808354040283529160200191611360565b820191906000526020600020905b81548152906001019060200180831161134357829003601f168201915b50505050508152602001600282015481526020016003820154815260200160048201548152505090508060400151816080015161139d9190611c4b565b42106113de576040517f08c379a00000000000000000000000000000000000000000000000000000000081526004016113d5906123ba565b60405180910390fd5b8273ffffffffffffffffffffffffffffffffffffffff167fa87e62a19990d72f49f9c30f3ba18b78efa3eb6816aaf9ca3c4d4d7b48fe1bcd82602001516040516114289190611599565b60405180910390a2505050565b50805461144190611beb565b6000825580601f106114535750611472565b601f0160209004906000526020600020908101906114719190611475565b5b50565b5b8082111561148e576000816000905550600101611476565b5090565b6000604051905090565b600080fd5b600080fd5b6000819050919050565b6114b9816114a6565b81146114c457600080fd5b50565b6000813590506114d6816114b0565b92915050565b6000602082840312156114f2576114f161149c565b5b6000611500848285016114c7565b91505092915050565b600081519050919050565b600082825260208201905092915050565b60005b83811015611543578082015181840152602081019050611528565b60008484015250505050565b6000601f19601f8301169050919050565b600061156b82611509565b6115758185611514565b9350611585818560208601611525565b61158e8161154f565b840191505092915050565b600060208201905081810360008301526115b38184611560565b905092915050565b600073ffffffffffffffffffffffffffffffffffffffff82169050919050565b60006115e6826115bb565b9050919050565b6115f6816115db565b811461160157600080fd5b50565b600081359050611613816115ed565b92915050565b6000806000606084860312156116325761163161149c565b5b600061164086828701611604565b935050602061165186828701611604565b9250506040611662868287016114c7565b9150509250925092565b600080fd5b600080fd5b7f4e487b7100000000000000000000000000000000000000000000000000000000600052604160045260246000fd5b6116ae8261154f565b810181811067ffffffffffffffff821117156116cd576116cc611676565b5b80604052505050565b60006116e0611492565b90506116ec82826116a5565b919050565b600067ffffffffffffffff82111561170c5761170b611676565b5b6117158261154f565b9050602081019050919050565b82818337600083830152505050565b600061174461173f846116f1565b6116d6565b9050828152602081018484840111156117605761175f611671565b5b61176b848285611722565b509392505050565b600082601f8301126117885761178761166c565b5b8135611798848260208601611731565b91505092915050565b6000602082840312156117b7576117b661149c565b5b600082013567ffffffffffffffff8111156117d5576117d46114a1565b5b6117e184828501611773565b91505092915050565b60008115159050919050565b6117ff816117ea565b82525050565b600060208201905061181a60008301846117f6565b92915050565b6000602082840312156118365761183561149c565b5b600061184484828501611604565b91505092915050565b611856816115db565b82525050565b611865816114a6565b82525050565b600060a082019050611880600083018861184d565b81810360208301526118928187611560565b90506118a1604083018661185c565b6118ae606083018561185c565b6118bb608083018461185c565b9695505050505050565b600081519050919050565b600082825260208201905092915050565b6000819050602082019050919050565b600082825260208201905092915050565b600061190d82611509565b61191781856118f1565b9350611927818560208601611525565b6119308161154f565b840191505092915050565b60006119478383611902565b905092915050565b6000602082019050919050565b6000611967826118c5565b61197181856118d0565b935083602082028501611983856118e1565b8060005b858110156119bf57848403895281516119a0858261193b565b94506119ab8361194f565b925060208a01995050600181019050611987565b50829750879550505050505092915050565b600081519050919050565b600082825260208201905092915050565b6000819050602082019050919050565b611a06816115db565b82525050565b6000611a1883836119fd565b60208301905092915050565b6000602082019050919050565b6000611a3c826119d1565b611a4681856119dc565b9350611a51836119ed565b8060005b83811015611a82578151611a698882611a0c565b9750611a7483611a24565b925050600181019050611a55565b5085935050505092915050565b60006040820190508181036000830152611aa9818561195c565b90508181036020830152611abd8184611a31565b90509392505050565b600080600060608486031215611adf57611ade61149c565b5b600084013567ffffffffffffffff811115611afd57611afc6114a1565b5b611b0986828701611773565b9350506020611b1a868287016114c7565b9250506040611b2b868287016114c7565b9150509250925092565b6000602082019050611b4a600083018461184d565b92915050565b7f4c6561736520646f6573206e6f74206578697374000000000000000000000000600082015250565b6000611b86601483611514565b9150611b9182611b50565b602082019050919050565b60006020820190508181036000830152611bb581611b79565b9050919050565b7f4e487b7100000000000000000000000000000000000000000000000000000000600052602260045260246000fd5b60006002820490506001821680611c0357607f821691505b602082108103611c1657611c15611bbc565b5b50919050565b7f4e487b7100000000000000000000000000000000000000000000000000000000600052601160045260246000fd5b6000611c56826114a6565b9150611c61836114a6565b9250828201905080821115611c7957611c78611c1c565b5b92915050565b7f4c65617365206475726174696f6e206e6f742065787069726564000000000000600082015250565b6000611cb5601a83611514565b9150611cc082611c7f565b602082019050919050565b60006020820190508181036000830152611ce481611ca8565b9050919050565b6000602082019050611d00600083018461185c565b92915050565b7f4f6e6c79206c65617365652063616e206d616b65207061796d656e7400000000600082015250565b6000611d3c601c83611514565b9150611d4782611d06565b602082019050919050565b60006020820190508181036000830152611d6b81611d2f565b9050919050565b7f4c6561736572206e6f7420666f756e6400000000000000000000000000000000600082015250565b6000611da8601083611514565b9150611db382611d72565b602082019050919050565b60006020820190508181036000830152611dd781611d9b565b9050919050565b7f53656e646572206e6f7420617574686f72697a65640000000000000000000000600082015250565b6000611e14601583611514565b9150611e1f82611dde565b602082019050919050565b60006020820190508181036000830152611e4381611e07565b9050919050565b7f4e487b7100000000000000000000000000000000000000000000000000000000600052603260045260246000fd5b600081905092915050565b60008190508160005260206000209050919050565b60008154611ea681611beb565b611eb08186611e79565b94506001821660008114611ecb5760018114611ee057611f13565b60ff1983168652811515820286019350611f13565b611ee985611e84565b60005b83811015611f0b57815481890152600182019150602081019050611eec565b838801955050505b50505092915050565b6000611f288284611e99565b915081905092915050565b6000611f3e826114a6565b91507fffffffffffffffffffffffffffffffffffffffffffffffffffffffffffffffff8203611f7057611f6f611c1c565b5b600182019050919050565b6000611f8682611509565b611f908185611e79565b9350611fa0818560208601611525565b80840191505092915050565b6000611fb88284611f7b565b915081905092915050565b7f43494420616c7265616479206578697374730000000000000000000000000000600082015250565b6000611ff9601283611514565b915061200482611fc3565b602082019050919050565b6000602082019050818103600083015261202881611fec565b9050919050565b60006020601f8301049050919050565b600082821b905092915050565b60006008830261207c7fffffffffffffffffffffffffffffffffffffffffffffffffffffffffffffffff8261203f565b612086868361203f565b95508019841693508086168417925050509392505050565b6000819050919050565b60006120c36120be6120b9846114a6565b61209e565b6114a6565b9050919050565b6000819050919050565b6120dd836120a8565b6120f16120e9826120ca565b84845461204c565b825550505050565b600090565b6121066120f9565b6121118184846120d4565b505050565b5b818110156121355761212a6000826120fe565b600181019050612117565b5050565b601f82111561217a5761214b81611e84565b6121548461202f565b81016020851015612163578190505b61217761216f8561202f565b830182612116565b50505b505050565b600082821c905092915050565b600061219d6000198460080261217f565b1980831691505092915050565b60006121b6838361218c565b9150826002028217905092915050565b6121cf82611509565b67ffffffffffffffff8111156121e8576121e7611676565b5b6121f28254611beb565b6121fd828285612139565b600060209050601f831160018114612230576000841561221e578287015190505b61222885826121aa565b865550612290565b601f19841661223e86611e84565b60005b8281101561226657848901518255600182019150602085019450602081019050612241565b86831015612283578489015161227f601f89168261218c565b8355505b6001600288020188555050505b505050505050565b600060608201905081810360008301526122b28186611560565b90506122c1602083018561185c565b6122ce604083018461185c565b949350505050565b60006080820190506122eb600083018761184d565b81810360208301526122fd8186611560565b905061230c604083018561185c565b612319606083018461185c565b95945050505050565b6000608082019050818103600083015261233c8187611560565b905061234b602083018661185c565b612358604083018561185c565b612365606083018461185c565b95945050505050565b7f4c65617365206475726174696f6e206578706972656400000000000000000000600082015250565b60006123a4601683611514565b91506123af8261236e565b602082019050919050565b600060208201905081810360008301526123d381612397565b905091905056fea26469706673582212208dd4cb000570062b121979a5499a5cb2735dbd3ed91c95d1b2eb989690e3580064736f6c63430008140033",
  "linkReferences": {},
  "deployedLinkReferences": {}
}